:020000040000fa
:080000000002040000000000f2
:020000040000fa
:040008008e04000062
:020000040000fa
:04000c00520400009a
:020000040000fa
:040010005804000090
:020000040000fa
:040014005e04000086
:020000040000fa
:04001800640400007c
:020000040000fa
:04001c006a04000072
:020000040000fa
:040020008e0400004a
:020000040000fa
:040024008e04000046
:020000040000fa
:040028008e04000042
:020000040000fa
:04002c008e0400003e
:020000040000fa
:040030008e0400003a
:020000040000fa
:040034008e04000036
:020000040000fa
:040038008e04000032
:020000040000fa
:04003c008e0400002e
:020000040000fa
:040040008e0400002a
:020000040000fa
:040044008e04000026
:020000040000fa
:040048008e04000022
:020000040000fa
:04004c008e0400001e
:020000040000fa
:040050008e0400001a
:020000040000fa
:04005400c8020000de
:020000040000fa
:040058003e04000062
:020000040000fa
:04005c008e0400000e
:020000040000fa
:040060008e0400000a
:020000040000fa
:040064008e04000006
:020000040000fa
:040068008e04000002
:020000040000fa
:04006c008e040000fe
:020000040000fa
:040070008e040000fa
:020000040000fa
:040074008e040000f6
:020000040000fa
:040078008e040000f2
:020000040000fa
:04007c008e040000ee
:020000040000fa
:040080008e040000ea
:020000040000fa
:040084008e040000e6
:020000040000fa
:040088008e040000e2
:020000040000fa
:04008c008e040000de
:020000040000fa
:040090008e040000da
:020000040000fa
:040094008e040000d6
:020000040000fa
:040098008e040000d2
:020000040000fa
:04009c008e040000ce
:020000040000fa
:0400a0008e040000ca
:020000040000fa
:0400a4008e040000c6
:020000040000fa
:0400a8008e040000c2
:020000040000fa
:0400ac008e040000be
:020000040000fa
:0400b0008e040000ba
:020000040000fa
:0400b4008e040000b6
:020000040000fa
:0400b8008e040000b2
:020000040000fa
:0400bc008e040000ae
:020000040000fa
:0400c0008e040000aa
:020000040000fa
:0400c4008e040000a6
:020000040000fa
:0400c8008e040000a2
:020000040000fa
:0400cc008e0400009e
:020000040000fa
:0400d0008e0400009a
:020000040000fa
:0400d4008e04000096
:020000040000fa
:0400d8008e04000092
:020000040000fa
:0400dc008e0400008e
:020000040000fa
:0400e0008e0400008a
:020000040000fa
:0400e4008e04000086
:020000040000fa
:0400e8008e04000082
:020000040000fa
:0400ec008e0400007e
:020000040000fa
:0400f0008e0400007a
:020000040000fa
:0400f4008e04000076
:020000040000fa
:0400f8008e04000072
:020000040000fa
:0400fc008e0400006e
:020000040000fa
:040100008e04000069
:020000040000fa
:040104008e04000065
:020000040000fa
:040108008e04000061
:020000040000fa
:04010c008e0400005d
:020000040000fa
:040110008e04000059
:020000040000fa
:040114008e04000055
:020000040000fa
:040118008e04000051
:020000040000fa
:04011c008e0400004d
:020000040000fa
:040120008e04000049
:020000040000fa
:040124008e04000045
:020000040000fa
:040128008e04000041
:020000040000fa
:04012c008e0400003d
:020000040000fa
:040130008e04000039
:020000040000fa
:040134008e04000035
:020000040000fa
:040138008e04000031
:020000040000fa
:04013c008e0400002d
:020000040000fa
:040140008e04000029
:020000040000fa
:040144008e04000025
:020000040000fa
:040148008e04000021
:020000040000fa
:04014c008e0400001d
:020000040000fa
:040150008e04000019
:020000040000fa
:040154008e04000015
:020000040000fa
:040158008e04000011
:020000040000fa
:04015c008e0400000d
:020000040000fa
:040160008e04000009
:020000040000fa
:040164008e04000005
:020000040000fa
:040208008e04000060
:020000040000fa
:04020c00700400007a
:020000040000fa
:040210007604000070
:020000040000fa
:040214007c04000066
:020000040000fa
:04021800820400005c
:020000040000fa
:04021c008804000052
:020000040000fa
:040220008e04000048
:020000040000fa
:040224008e04000044
:020000040000fa
:040228008e04000040
:020000040000fa
:04022c008e0400003c
:020000040000fa
:040230008e04000038
:020000040000fa
:040234008e04000034
:020000040000fa
:040238008e04000030
:020000040000fa
:04023c008e0400002c
:020000040000fa
:040240008e04000028
:020000040000fa
:040244008e04000024
:020000040000fa
:040248008e04000020
:020000040000fa
:04024c008e0400001c
:020000040000fa
:040250008e04000018
:020000040000fa
:040254008e04000014
:020000040000fa
:040258008e04000010
:020000040000fa
:04025c008e0400000c
:020000040000fa
:040260008e04000008
:020000040000fa
:040264008e04000004
:020000040000fa
:040268008e04000000
:020000040000fa
:04026c008e040000fc
:020000040000fa
:040270008e040000f8
:020000040000fa
:040274008e040000f4
:020000040000fa
:040278008e040000f0
:020000040000fa
:04027c008e040000ec
:020000040000fa
:040280008e040000e8
:020000040000fa
:040284008e040000e4
:020000040000fa
:040288008e040000e0
:020000040000fa
:04028c008e040000dc
:020000040000fa
:040290008e040000d8
:020000040000fa
:040294008e040000d4
:020000040000fa
:040298008e040000d0
:020000040000fa
:04029c008e040000cc
:020000040000fa
:0402a0008e040000c8
:020000040000fa
:0402a4008e040000c4
:020000040000fa
:0402a8008e040000c0
:020000040000fa
:0402ac008e040000bc
:020000040000fa
:0402b0008e040000b8
:020000040000fa
:0402b4008e040000b4
:020000040000fa
:0402b8008e040000b0
:020000040000fa
:0402bc008e040000ac
:020000040000fa
:0402c0008e040000a8
:020000040000fa
:0402c4008e040000a4
:020000040000fa
:0402c8008e040000a0
:020000040000fa
:0402cc008e0400009c
:020000040000fa
:0402d0008e04000098
:020000040000fa
:0402d4008e04000094
:020000040000fa
:0402d8008e04000090
:020000040000fa
:0402dc008e0400008c
:020000040000fa
:0402e0008e04000088
:020000040000fa
:0402e4008e04000084
:020000040000fa
:0402e8008e04000080
:020000040000fa
:0402ec008e0400007c
:020000040000fa
:0402f0008e04000078
:020000040000fa
:0402f4008e04000074
:020000040000fa
:0402f8008e04000070
:020000040000fa
:0402fc008e0400006c
:020000040000fa
:040300008e04000067
:020000040000fa
:040304008e04000063
:020000040000fa
:040308008e0400005f
:020000040000fa
:04030c008e0400005b
:020000040000fa
:040310008e04000057
:020000040000fa
:040314008e04000053
:020000040000fa
:040318008e0400004f
:020000040000fa
:04031c008e0400004b
:020000040000fa
:040320008e04000047
:020000040000fa
:040324008e04000043
:020000040000fa
:040328008e0400003f
:020000040000fa
:04032c008e0400003b
:020000040000fa
:040330008e04000037
:020000040000fa
:040334008e04000033
:020000040000fa
:040338008e0400002f
:020000040000fa
:04033c008e0400002b
:020000040000fa
:040340008e04000027
:020000040000fa
:040344008e04000023
:020000040000fa
:040348008e0400001f
:020000040000fa
:04034c008e0400001b
:020000040000fa
:040350008e04000017
:020000040000fa
:040354008e04000013
:020000040000fa
:040358008e0400000f
:020000040000fa
:04035c008e0400000b
:020000040000fa
:040360008e04000007
:020000040000fa
:040364008e04000003
:020000040000fa
:10040000cf8120000e7f24000e0188000000000034
:10041000000020000000e000020032000001200087
:1004200020028800140007003e0107000000e000e1
:1004300003003a0060642000010020000200370041
:100440000000200001002000810f70000100320038
:1004500014000700000020000000e000020032004d
:1004600000000200000000004a0502000000000039
:100470000040da000000fe004440a9000000200017
:100480000000e0000300320000002000a00188000e
:100490004440a800000006008a1f78008b1f7800e7
:1004a0000000060091018800800478000000eb0045
:1004b0001a003700e284440032a0b4009905ba0063
:1004c000e284440032a0b4009906ba00e2844400f9
:1004d00032a0b4000006eb00476fde00fd07b2005b
:1004e000636ce10003003a00ebff07000000eb0043
:1004f0000a003700606ce10004003a00005deb0088
:100500008b05e900fdff3e00040037006168e10053
:10051000010032000086eb000b00070019c7ba008b
:100520001905ba000e04e00003003a000a00e000da
:10053000e0ff3a0000000600fe07b2009e018800be
:100540008a047800f5ff3700395dba008b05e900b1
:100550000c003200295dba008b05e900080032006a
:100560000c00e00003003a00e284440032a0b40032
:10057000f5ff370019ddba008b05e900faff3a00f4
:100580008904e800e184440032a0b40000000600c1
:10059000809fbe00821f78003400f8000000200019
:1005a000a00188000400fa003011800000407800ab
:1005b00000e8b700018020009140780070c6b300c9
:1005c00080cf500004003a00c402a900c482a900f0
:1005d000c502a900a30037000180200091407800e7
:1005e00030c7b30080cf500004003a00c402a80016
:1005f000c482a800c502a8009a003700018020002c
:100600009140780050c7b30080cf500004003a00fa
:1006100050072000201188000428ef0091003700c7
:100620002040800001802000914078008100fb0084
:1006300000014000a0802000000041000108780077
:10064000204080000000e80020408800204080001a
:10065000e50f5000830034000428ef005040800074
:10066000b0408800b1408000f00f200000806000a2
:10067000b0408800b1408000604080004800dd004c
:1006800001007000b040880070408000c0408800c9
:10069000c1408000f00f200000806000c040880052
:1006a000c1408000804080004800dd0001007000f3
:1006b000c040880090408000d0408800d140800039
:1006c000f00f200000806000d0408800d140800002
:1006d000a04080004800dd0001007000d04088008c
:1006e0000000eb00000f78000000eb00000f780026
:1006f000230037000000eb00100798001e00780070
:100700008000400060812000008040009000780060
:100710000000280000806000100798001e00900074
:100720000000e000110032001e0078008000400050
:10073000608120000080400090007800f0ff2700da
:10074000808060001e007800000140006081200071
:100750000000410001087800608020001e00400079
:100760008040eb00014878000400370060802000e2
:100770001e00400011c0b300014878001e0fe800c1
:100780001e007800e20f5000daff34006080200085
:10079000104078000080fb00610060000000400015
:1007a00022168000d1ff2f0081006100010070003f
:1007b0002016880070802000104078000080fb0028
:1007c000610060004700dd0022168000f1f72f0075
:1007d00081006100010070002016880080802000e8
:1007e000104078000080fb00610060004900dd00df
:1007f00022168000f1df2f008100610001007000ef
:1008000020168800b04080006500b9000001780023
:10081000605525000090b9004f91de000280500025
:10082000b00e8800c04080006500b900000178006b
:10083000605525000090b9004f91de000280500005
:10084000c00e8800d04080006500b900000178002b
:10085000605525000090b9004f91de0002805000e5
:10086000d00e88008560a9000080fa003400f900ed
:100870004f0178004f00be00004006003400f80031
:10088000881f780008002000a80188004f04780025
:100890000000fa008580a9000080fa003400f90009
:1008a000004006000000fa008020a900ffff37008a
:1008b0000000fa008060a900ffff37000000fa0086
:1008c0008040a900ffff37000000fa008080a900e7
:1008d000ffff37000000fa0080a0a900ffff3700eb
:1008e0000000fa008020a900ffff37000000fa0096
:1008f0008060a900ffff37000000fa008040a900d7
:10090000ffff37000000fa008080a900ffff3700da
:100910000000fa0080a0a900ffff37000000fa00e5
:08092000ffff37000000050095
:020000040000fa
:100928000000fa00113a8000f0fb2f0000816000ff
:10093800600420007105200023742000804978009d
:1009480081497800824978002135800000fe2f0017
:10095800008060000020a00020358800013680005b
:1009680000fe2f00008060003000b30000368800d1
:10097800103a8000000178000260a00060042000a6
:10098800710520002374200080497800814978008f
:1009980082497800c002a900c022a900c082a9002b
:1009a800c0e2a900c102a900c122a90003000700f2
:1009b800160007000080fa00000006000000fa0098
:1009c80000002800000e8800c221ef00f07c200003
:1009d800200e8800f0ff2000400e88004000200014
:1009e800500e880000f02f00a00e8800400620005e
:1009f800b00e8800800c2000c00e8800803e2000c9
:100a0800d00e88000080fa00000006000200fa00fc
:100a18002002a9000111800090ff2f0000806000d3
:100a28000011880020a2a9002062a90020c2a90004
:100a3800400120004011880023a2a90023e2a90058
:100a480011118000f0f32f00008060001011880061
:100a58009580a8009560a80021e2a8002342a8007c
:100a68000000eb00000f78000200370000000000d3
:100a78001e0fe800f00321009e007800808f5000d0
:100a8800faff34000080fa00000006000000fa00b7
:100a980051000700a2ff070003c8bf000004e000e0
:100aa80003003200c402a800c482a800c502a8003e
:100ab80002c8bf000004e00003003200c402a9001d
:100ac800c482a900c502a9006080200010407800f7
:100ad8000080fb00610060000000400022168000da
:100ae800d1ff2f00810061000100700020168800ee
:100af80070802000104078000080fb0061006000da
:100b08004700dd0022168000f1f72f008100610008
:100b180001007000201688008080200010407800b6
:100b28000080fb00610060004900dd0022168000a3
:100b3800f1df2f008100610001007000201688009d
:100b4800b04080006500b9000001780060552500bc
:100b58000090b9004f91de0002805000b00e88006e
:100b6800c04080006500b90000017800605525008c
:100b78000090b9004f91de0002805000c00e88003e
:100b8800d04080006500b90000017800605525005c
:100b98000090b9004f91de0002805000d00e88000e
:100ba80010118000680060000000e00001003200c1
:100bb8000800370010118000620060000000e000ab
:100bc800020032002222a900020037001011800022
:100bd800f3ff3700f2ff37000000fa009002200010
:100be800303a8800213a8000f0f32f00008060003e
:100bf800203a8800213a800000fe2f000080600023
:100c0800203a880050012000403a880040a7a900f7
:100c18003200200080072000a10920003374200042
:100c280080497800814978008249780012002000c4
:100c3800600420007105200023742000804978009a
:100c4800814978008249780000000000113a80004c
:100c5800000027008080600000002300808f500083
:100c6800faff3a0000000000113a8000000220005c
:100c7800008060000000e000fbff32000080fa0006
:040c88000000060062
:020000040000fa
:100c8c00060800001600000000000000000800002c
:0c0c9c0006000000000000000000000046
:020000040000fa
:0200000401f009
:04000000ffff0000fe
:020000040000fa
:0200000401f009
:04000400ffff0000fa
:020000040000fa
:0200000401f009
:04000800ffff0000f6
:020000040000fa
:0200000401f009
:04000c00820000006e
:020000040000fa
:0200000401f009
:040010006500000087
:020000040000fa
:0200000401f009
:040014005f00000089
:020000040000fa
:0200000401f009
:04001800f7000000ed
:020000040000fa
:0200000401f009
:04001c00ddff000004
:00000001FF
